:1000000045C0000060C000005EC000005CC0000091
:100010005AC0000058C0000056C0000054C0000084
:1000200052C0000050C000004EC000004CC0000094
:100030004AC0000044C1000046C0000044C00000A7
:1000400042C0000040C000003EC000003CC00000B4
:100050003AC0000038C0000036C0000034C00000C4
:1000600032C0000030C000002EC000002CC00000D4
:100070002AC0000028C0000026C0000024C00000E4
:1000800022C0000020C000001EC0000011241FBEBE
:10009000CFEFD0E4DEBFCDBF11E0A0E0B1E0E2E7FA
:1000A000F6E000E00BBF02C007900D92A430B1074C
:1000B000D9F721E0A4E0B1E001C01D92AB30B20756
:1000C000E1F78CD1D4C29CCFCF93DF93CDB7DEB70D
:1000D00084E690E082D088E30DD086E00BD08FE0FC
:1000E00009D081E007D08AE090E077D00000DF916E
:1000F000CF910895CF93DF931F92CDB7DEB7898359
:100100008BE290E02BE230E0F90120812F7BFC01B3
:10011000208388E290E02981FC0120838BE290E03B
:100120002BE230E0F90120812068FC0120830000EF
:100130008BE290E02BE230E0F90120812F77FC0187
:10014000208382E090E049D000000F90DF91CF91B2
:100150000895CF93DF931F92CDB7DEB789838BE2EB
:1001600090E02BE230E0F90120812064FC01208343
:1001700088E290E02981FC0120838BE290E02BE271
:1001800030E0F90120812068FC01208300008BE22F
:1001900090E02BE230E0F90120812F77FC012083F1
:1001A00081E090E01AD000000F90DF91CF91089588
:1001B000CF93DF931F92CDB7DEB7898389818131D9
:1001C00020F48981815896DF03C08981815592DFAF
:1001D00000000F90DF91CF910895CF93DF9300D06F
:1001E00000D000D0CDB7DEB79E838D831A821982EE
:1001F00013C01C821B8206C000008B819C8101966B
:100200009C838B838B819C8187309340ACF3898165
:100210009A8101969A83898329813A818D819E8171
:100220002817390734F3000026960FB6F894DEBF7E
:100230000FBECDBFDF91CF910895CF93DF93CDB7A0
:10024000DEB781E890E02BE0FC01208388E890E0B5
:100250002DE730E0FC01318320838FE690E022E03F
:10026000FC01208384E890E0FC01118210828091DF
:10027000000190910101A0910201B09103018093CE
:10028000050190930601A0930701B09308018FE543
:1002900090E02FE530E0F90120812068FC01208307
:1002A0000000DF91CF910895CF93DF93CDB7DEB7F4
:1002B00081E0809304010000DF91CF9108951F92A7
:1002C0000F9200905F000F92112400905B000F923C
:1002D0002F933F934F935F936F937F938F939F934E
:1002E000AF93BF93EF93FF93CF93DF93CDB7DEB779
:1002F0008091050190910601A0910701B09108013C
:100300000197A109B1098093050190930601A0937B
:100310000701B09308018091050190910601A09119
:100320000701B0910801892B8A2B8B2B89F4BCDF44
:100330008091000190910101A0910201B09103010F
:100340008093050190930601A0930701B0930801E3
:100350000000DF91CF91FF91EF91BF91AF919F91FD
:100360008F917F916F915F914F913F912F910F905E
:1003700000925B000F9000925F000F901F90189505
:10038000CF93DF9300D000D0CDB7DEB769837A83F7
:100390008B839C8389819A81AB81BC81809300018E
:1003A00090930101A0930201B09303018091000199
:1003B00090910101A0910201B09103018093050188
:1003C00090930601A0930701B093080100000F90DD
:1003D0000F900F900F90DF91CF910895CF93DF93FF
:1003E000CDB7DEB781E290E0FC01108282E290E0BE
:1003F0002FEFFC01208387E290E02FEFFC012083A8
:1004000088E290E0FC0110828AE290E02FEFFC018C
:1004100020838BE290E0FC01108210920A0162E3DB
:1004200070E080E090E0ACDF08DF4EDE08D0000036
:10043000809104018823E1F310920401F7CFCF9358
:10044000DF93CDB7DEB780910A01882F90E082302C
:10045000910509F44AC0833091052CF4009779F096
:100460000197A9F0B0C08430910509F446C08430EA
:1004700091050CF43EC0059709F477C0A4C081E053
:1004800097DE8FE466DE81E080930A019CC080E203
:1004900090E0FC018081882F90E08370992703977A
:1004A00021F485E080930A018EC080E290E0FC0197
:1004B0008081882F90E083709927019721F482E052
:1004C00080930A0180C080E290E0FC018081882F47
:1004D00090E083709927029721F483E080930A01CA
:1004E00072C081E080930A016EC084E080930A01AB
:1004F0006AC084E080930A0166C080E290E0FC015B
:100500008081882F90E083709927892B21F481E0E6
:1005100080930A0157C080E290E0FC018081882F1F
:1005200090E083709927039721F485E080930A0176
:1005300049C080E290E0FC018081882F90E08370C8
:100540009927019721F482E080930A013BC080E261
:1005500090E0FC018081882F90E0837099270297BA
:1005600089F583E080930A012DC080E290E0FC01D0
:100570008081882F90E083709927039721F485E08C
:1005800080930A0120C080E290E0FC018081882FE6
:1005900090E082709927892B21F085E080930A01F1
:1005A00012C080E290E0FC018081882F90E0817091
:1005B0009927892B21F085E080930A0104C01092CD
:1005C0000A0101C0000080910A01882F90E082306A
:1005D0009105A1F0833091053CF4009709F43EC0E9
:1005E000019709F43DC03FC08430910509F43AC039
:1005F00084309105BCF0059741F135C08091090127
:10060000893030F4809109018F5F8093090103C024
:1006100089E08093090181E0CBDD80910901805D53
:1006200098DD21C080910901882331F08091090172
:1006300081508093090102C01092090181E0B8DD68
:1006400080910901805D85DD0EC01092090181E075
:10065000AFDD80910901805D7CDD05C0000003C035
:10066000000001C000000000DF91CF910895F894D0
:02067000FFCFBA
:040672000100000083
:00000001FF
