:1000000045C000004BC0000049C0000047C00000D0
:1000100045C0000043C0000041C000003FC00000D8
:100020003DC000003BC0000039C0000037C00000E8
:1000300035C0000033C0000031C000002FC00000F8
:100040002DC000002BC0000029C0000027C0000008
:1000500025C0000023C0000021C000001FC0000018
:100060001DC000001BC0000019C0000017C0000028
:1000700015C0000013C0000011C000000FC0000038
:100080000DC000000BC0000009C0000011241FBEFD
:10009000CFEFD0E4DEBFCDBF4ED037C1B1CFCF93CD
:1000A000DF9300D01F92CDB7DEB789836A834B837D
:1000B0008B81882371F08A81282F30E081E090E0E5
:1000C00002C0880F991F2A95E2F7982F8981892B02
:1000D0000EC08A81282F30E081E090E002C0880FB6
:1000E000991F2A95E2F7982F9095898189230F907F
:1000F0000F900F90DF91CF910895CF93DF9300D0B1
:10010000CDB7DEB789836A838981882F90E02A8101
:10011000222F30E002C0959587952A95E2F78170ED
:10012000992721E0892B09F420E0822F0F900F906E
:10013000DF91CF910895CF93DF9300D0CDB7DEB795
:1001400081E290E0FC01108282E290E02FEFFC015E
:10015000208387E290E02FEFFC01208388E290E08B
:10016000FC011082198280E290E0FC0180818F7096
:100170008A838A81813019F08A81823031F441E0AA
:1001800065E089818CDF89838FC08A81833019F093
:100190008A81843059F441E065E0898180DF898378
:1001A00041E064E089817BDF89837EC08A8185307C
:1001B00019F08A81863081F441E065E089816FDF42
:1001C000898341E064E089816ADF898341E063E0FB
:1001D000898165DF898368C08A81873031F08A81AF
:1001E000883019F08A818930A9F441E065E089817D
:1001F00056DF898341E064E0898151DF898341E0F2
:1002000063E089814CDF898341E062E0898147DFD7
:1002100089834AC08A818A3031F08A818B3019F013
:100220008A818C30D1F441E065E0898138DF8983AF
:1002300041E064E0898133DF898341E063E08981C3
:100240002EDF898341E062E0898129DF898341E0F3
:1002500061E0898124DF898327C08A818D3031F074
:100260008A818E3019F08A818F30F1F441E065E0A7
:10027000898115DF898341E064E0898110DF89830A
:1002800041E063E089810BDF898341E062E089819D
:1002900006DF898341E061E0898101DF898341E0F4
:1002A00060E08981FCDE89838A81853028F441E021
:1002B00066E08981F4DE898380E290E0FC01808140
:1002C00064E01BDF8130B1F480E290E0FC018081CA
:1002D00065E013DF813071F480E290E0FC01808101
:1002E00066E00BDF813031F041E067E08981D7DEE5
:1002F000898305C040E067E08981D1DE898388E297
:0E03000090E02981FC0120832DCFF894FFCFDF
:00000001FF
