S01C0000706E6775793039325F6C616231315F70617274332E7372656301
S11300008AC00000A5C00000A3C00000A1C0000079
S11300109FC000009DC000009BC0000099C000006C
S113002097C0000095C0000093C0000091C000007C
S11300308FC00000C3C000008BC0000089C0000056
S113004087C0000085C0000083C0000081C000009C
S11300507FC000007DC000007BC0000079C00000AC
S113006077C0000075C0000073C0000071C00000BC
S11300706FC000006DC000006BC0000069C00000CC
S113008067C0000065C0000063C00000B7015902EA
S11300905902590259025902590259025902590284
S11300A05902590259025902590259025902590274
S11300B05902590259025902590259025902590264
S11300C05902590259025902590259025902590254
S11300D059024F025902590259025902590259024E
S11300E03C02590259025902590259024602BB0103
S11300F0C401CE01D801E201EC01F60100020A02BA
S11301005902590259025902590259025902140258
S11301101E022802320211241FBECFEFD0E4DEBF3C
S1130120CDBF11E0A0E0B1E0E2E8F5E000E00BBFF4
S113013002C007900D92A430B107D9F721E0A4E0E2
S1130140B1E001C01D92A531B207E1F7BCD117C2DD
S113015057CF609300017093010180930201909343
S11301600301609310017093110180931201909325
S1130170130108958BE0809381008DE790E09093C4
S113018089008093880082E080936F00109285003C
S1130190109284008091000190910101A0910201CC
S11301A0B09103018093100190931101A093120167
S11301B0B09313018FB780688FBF08951F920F9279
S11301C00FB60F9211248F939F93AF93BF93809197
S11301D0100190911101A0911201B09113010197A6
S11301E0A109B1098093100190931101A093120108
S11301F0B0931301892B8A2B8B2B99F481E0809384
S113020014018091000190910101A0910201B0912B
S113021003018093100190931101A0931201B093F4
S11302201301BF91AF919F918F910F900FBE0F90CB
S11302301F901895181619065CF0089500002150B7
S11302403109E1F74F5F5F4F8417950719F408955B
S113025040E050E027E033E0F1CF10988BB9119AD9
S11302600000119882E090E0E5CF089581E0F5CF99
S11302700895813118F48158F0CF08958155EDCF58
S1130280089584E690E0D6DF88E3E7DF86E0E5DFE3
S11302908FE0E3DF81E0E1DF8AE090E0CBCF0895F7
S11302A0109A8BB9119A0000119881E090E0C2CFA6
S11302B008958FEE88B90000309B29C0319B29C076
S11302C0329B29C0339B29C08FED88B90000309B35
S11302D026C0319B26C0329B26C0339B26C08FEBA1
S11302E088B90000309B23C0319B23C0329B23C0BC
S11302F0339B23C08FE788B90000309B20C0319B1B
S113030020C0329B20C0339B20C080E0089581E34D
S1130310089584E3089587E308958AE2089582E3C3
S1130320089585E3089588E3089580E3089583E3B9
S1130330089586E3089589E3089583E2089581E4A6
S1130340089582E4089583E4089584E40895CF939E
S1130350DF93EC01AEDF209709F0B1C090E0853463
S1130360910508F0A6C0FC01EA5BFF4FFFC08FE1D6
S113037080930F01A1C081E080930F017ADF809107
S11303800F01805D8DDF98C082E080930F0181E0D2
S113039070DF80910F01805D83DF8EC083E08093E6
S11303A00F0181E066DF80910F01805D79DF84C0F9
S11303B084E080930F0181E05CDF80910F01805D18
S11303C06FDF7AC085E080930F0181E052DF809176
S11303D00F01805D65DF70C086E080930F0181E0CE
S11303E048DF80910F01805D5BDF66C087E080930A
S11303F00F0181E03EDF80910F01805D51DF5CC021
S113040088E080930F0181E034DF80910F01805DEB
S113041047DF52C089E080930F0181E02ADF809199
S11304200F01805D3DDF48C08AE080930F0181E0C9
S113043020DF80910F01895C33DF3EC08BE0809325
S11304400F0181E016DF80910F01895C29DF34C040
S11304508CE080930F0181E00CDF80910F01895CB7
S11304601FDF2AC08DE080930F0181E002DF8091BD
S11304700F01895C15DF20C08EE080930F0181E0BD
S1130480F8DE80910F01845E0BDF16C010920F011D
S113049081E0EFDE80910F01805D02DF0DC08FE00F
S11304A080930F0181E0E5DE80910F018C5EF8DE20
S11304B003C08BE180930F0180910F0185B9CE01B8
S11304C0DF91CF9108958FEF81B912B88AB91BB823
S11304D084B915B880EF87B98FE088B9E4E0F1E01A
S11304E0108281E090E0A0E0B0E081839283A38356
S11304F0B48385839683A783B08787EA91E0928744
S1130500818761E070E080E090E023DE33DEB9DED5
S1130510ADDEC4E0D1E04D815E816F817885898153
S11305209A81AB81BC81481759076A077B0760F041
S11305308881E985FA85082E000C990B0995888332
S11305401D821E821F8218868D819E81AF81B8858F
S11305500196A11DB11D8D839E83AF83B8878091C1
S113056014018823E1F310921401D5CFEE0FFF1F7D
S11305700024001C0BBE0790F691E02D0994F8941A
S1050580FFCFA7
S10705820100000070
S9030000FC
