S01B000052687974686D5F47616D655F50726F6A6563742E737265637E
S113000045C0000060C000005EC000005CC000008D
S11300105AC0000058C0000056C0000054C0000080
S113002052C0000050C000004EC000004CC0000090
S11300304AC00000D2C2000046C0000044C0000014
S113004042C0000040C000003EC000003CC00000B0
S11300503AC0000038C0000036C0000034C00000C0
S113006032C0000030C000002EC000002CC00000D0
S11300702AC0000028C0000026C0000024C00000E0
S113008022C0000020C000001EC0000011241FBEBA
S1130090CFEFD0E4DEBFCDBF11E0A0E0B1E0EAE8ED
S11300A0FFE000E00BBF02C007900D92A635B10738
S11300B0D9F721E0A6E5B1E001C01D92AB39B20742
S11300C0E1F7EED360C79CCFCF93DF93CDB7DEB714
S11300D081E004D00000DF91CF910895CF93DF93A6
S11300E01F92CDB7DEB7898385E290E025E230E048
S11300F0F90120812E7FFC0120838BE290E029818D
S1130100FC01208385E290E025E230E0F9012081C2
S11301102260FC012083000085E290E025E230E0CB
S1130120F90120812D7FFC01208382E090E07ED0C4
S113013000000F90DF91CF910895CF93DF931F922A
S1130140CDB7DEB7898385E290E025E230E0F9019E
S113015020812160FC0120838BE290E02981FC0155
S1130160208385E290E025E230E0F90120812260DD
S1130170FC012083000085E290E025E230E0F901F3
S113018020812D7FFC01208381E090E04FD000008E
S11301900F90DF91CF910895CF93DF9300D000D0DB
S11301A000D0CDB7DEB78A837C836B835E834D83B7
S11301B08A8189838B819C81029799F48981805FEC
S11301C089830FC0898191E0980F99831AD08D811A
S11301D09E819C012F5F3F4F3E832D83FC018081D4
S11301E0ACDF8D819E81FC018081882359F700005A
S11301F026960FB6F894DEBF0FBECDBFDF91CF9128
S11302000895CF93DF931F92CDB7DEB78983898199
S1130210813120F48981815861DF03C0898181554E
S11302205DDF00000F90DF91CF910895CF93DF93AE
S113023000D000D000D0CDB7DEB79E838D831A8264
S1130240198213C01C821B8206C000008B819C8112
S113025001969C838B838B819C8187309340ACF384
S113026089819A8101969A83898329813A818D8132
S11302709E812817390734F3000026960FB6F894A8
S1130280DEBF0FBECDBFDF91CF910895CF93DF9333
S113029000D000D0CDB7DEB78A837C836B838A819C
S11302A08830D0F48A81882F90E00896880F880FD0
S11302B0880F14DF19820DC08981882F90E02B816B
S11302C03C81820F931FFC01808137DF89818F5F1E
S11302D089838981883080F380E800DF00000F90F3
S11302E00F900F900F90DF91CF910895CF93DF93EC
S11302F0CDB7DEB784E690E099DF88E3EFDE86E0F1
S1130300EDDE8FE0EBDE81E0E9DE8AE090E08EDF77
S113031060E071E080E0BADF68E071E081E0B6DFC0
S113032060E171E082E0B2DF68E171E084E0AEDFB9
S113033060E271E085E0AADF68E271E086E0A6DFB2
S11303400000DF91CF910895CF93DF93CDB7DEB74F
S11303508CE0C4DE81E055DF85E0EFDE86E051DF2E
S113036081E0EBDE82E0E9DE84E0E7DE80E0E5DEEA
S113037080E147DF85E0E1DE44E351E062E070E0E4
S113038081E00ADF87E13DDF86E0D7DE0000DF9110
S1130390CF910895CF93DF9300D000D0CDB7DEB7CF
S11303A069837A838B839C8389819A81AB81BC81A5
S11303B08093300190933101A0933201B0933301C3
S11303C08091300190913101A0913201B0913301BB
S11303D08093570190935801A0935901B0935A0107
S11303E000000F900F900F900F90DF91CF91089520
S11303F0CF93DF93CDB7DEB781E890E02BE0FC012B
S1130400208388E890E02DE730E0FC0131832083ED
S11304108FE690E022E0FC01208384E890E0FC0178
S1130420118210828091300190913101A0913201AA
S1130430B09133018093570190935801A0935901CF
S1130440B0935A018FE590E02FE530E0F901208167
S11304502068FC0120830000DF91CF9108950F9361
S11304601F93CF93DF931F92CDB7DEB781E08093C4
S113047056011982A6C08981282F30E0C901880F4E
S1130480991F820F931F880F991F880F991F8B59EB
S11304909E4FFC0120813181428153818981682FE3
S11304A070E0CB01880F991F860F971F880F991F43
S11304B0880F991F8F599E4FFC0180819181A281E1
S11304C0B381281739074A075B0708F449C08981B3
S11304D0082F10E08981282F30E0C901880F991F67
S11304E0820F931F880F991F880F991F87599E4F5A
S11304F0FC01408151818981282F30E0C901880F96
S1130500991F820F931F880F991F880F991F815A73
S11305109E4FFC0180819181FA0109959C01C801DB
S1130520880F991F800F911F880F991F880F991F9B
S1130530815A9E4FFC01318320838981282F30E02A
S1130540C901880F991F820F931F880F991F880F65
S1130550991F8B599E4FFC011082118212821382C3
S11305608981682F70E08981282F30E0C901880FC4
S1130570991F820F931F880F991F880F991F8B59FA
S11305809E4FFC0180819181A281B3812AE030E0F9
S113059040E050E0280F391F4A1F5B1FCB01880F32
S11305A0991F860F971F880F991F880F991F8B59C2
S11305B09E4FFC01208331834283538389818F5F63
S11305C0898385E09981981708F455CF00000F902E
S11305D0DF91CF911F910F9108951F920F92009078
S11305E05F000F92112400905B000F922F933F93B2
S11305F04F935F936F937F938F939F93AF93BF9327
S1130600EF93FF93CF93DF93CDB7DEB7809157017C
S113061090915801A0915901B0915A010197A109F3
S1130620B1098093570190935801A0935901B09355
S11306305A018091570190915801A0915901B091AC
S11306405A01892B8A2B8B2B89F409DF8091300185
S113065090913101A0913201B091330180935701FF
S113066090935801A0935901B0935A010000DF916F
S1130670CF91FF91EF91BF91AF919F918F917F9116
S11306806F915F914F913F912F910F9000925B007A
S11306900F9000925F000F901F901895CF93DF93F7
S11306A000D0CDB7DEB789836A838A81282F30E0F2
S11306B081E090E002C0880F991F2A95E2F7982FF5
S11306C08981892B0F900F90DF91CF910895CF935B
S11306D0DF9300D0CDB7DEB789836A838A81282F60
S11306E030E081E090E002C0880F991F2A95E2F77C
S11306F0982F9095898189230F900F90DF91CF9146
S113070008950F931F93CF93DF93CDB7DEB707E21E
S113071010E087E290E0FC01808162E0BFDFF80135
S1130720808307E210E087E290E0FC01808163E0CF
S1130730B5DFF801808307E210E087E290E0FC0176
S1130740808164E0ABDFF80180830000DF91CF910A
S11307501F910F9108950F931F93CF93DF93CDB7FC
S1130760DEB708E210E088E290E0FC01808162E0FC
S113077095DFF80180830000DF91CF911F910F91E5
S113078008950F931F93CF93DF93CDB7DEB708E29D
S113079010E088E290E0FC01808162E098DFF801DB
S11307A080830000DF91CF911F910F9108950F93E3
S11307B01F93CF93DF93CDB7DEB708E210E088E252
S11307C090E0FC01808163E069DFF801808308E246
S11307D010E088E290E0FC01808163E078DFF801BA
S11307E080830000DF91CF911F910F9108950F93A3
S11307F01F93CF93DF9300D000D0CDB7DEB708E2CC
S113080010E088E290E0FC01808164E047DFF801B9
S1130810808381E090E09A83898389819A8101971A
S1130820F1F79A83898308E210E088E290E0FC0102
S1130830808164E04CDFF801808381E090E09C8358
S11308408B838B819C810197F1F79C838B830000C0
S11308500F900F900F900F90DF91CF911F910F91F8
S11308600895CF93DF9300D0CDB7DEB78A83198282
S11308700DC08A81882314F46EDF01C082DF97DF04
S11308808A81880F8A8389818F5F898389818830EF
S113089080F3ADDF00000F900F90DF91CF910895AA
S11308A0CF93DF931F92CDB7DEB78AE290E02FEFAC
S11308B0FC0120838BE290E0FC01108287E290E04F
S11308C02FEFFC01208388E290E0FC01108281E29A
S11308D090E0FC01108282E290E02FEFFC01208383
S11308E084E290E02FEFFC01208385E290E0FC019C
S11308F01082FCDC29DD05DF8FEFB3DF80E0B1DFA0
S113090019828981282F30E0C901880F991F820F2D
S1130910931F880F991F880F991F815A9E4FFC01BE
S1130920118210828981282F30E0C901880F991F14
S1130930820F931F880F991F880F991F9C012F59AD
S11309403E4F82E390E0A0E0B0E0F9018083918320
S1130950A283B3838981682F70E08981282F30E0D6
S1130960C901880F991F820F931F880F991F880F41
S1130970991F8F599E4FFC012081318142815381FF
S1130980CB01880F991F860F971F880F991F880F17
S1130990991F8B599E4FFC012083318342835383DB
S11309A08981282F30E0C901880F991F820F931F76
S11309B0880F991F880F991F87599E4F23E936E0A6
S11309C0FC013183208389818F5F89838981282F6A
S11309D030E0C901880F991F820F931F880F991F58
S11309E0880F991F815A9E4FFC01118210828981C0
S11309F0282F30E0C901880F991F820F931F880F99
S1130A00991F880F991F9C012F593E4F82E390E054
S1130A10A0E0B0E0F90180839183A283B38389814C
S1130A20682F70E08981282F30E0C901880F991F51
S1130A30820F931F880F991F880F991F8F599E4FFC
S1130A40FC012081318142815381CB01880F991FA0
S1130A50860F971F880F991F880F991F8B599E4FD8
S1130A60FC0120833183428353838981282F30E022
S1130A70C901880F991F820F931F880F991F880F30
S1130A80991F87599E4F2AEC36E0FC01318320835D
S1130A9089818F5F89838981282F30E0C901880F7C
S1130AA0991F820F931F880F991F880F991F815ACE
S1130AB09E4FFC01118210828981282F30E0C901E8
S1130AC0880F991F820F931F880F991F880F991FF2
S1130AD09C012F593E4F82E390E0A0E0B0E0F90181
S1130AE080839183A283B3838981682F70E0898195
S1130AF0282F30E0C901880F991F820F931F880F98
S1130B00991F880F991F8F599E4FFC0120813181B5
S1130B1042815381CB01880F991F860F971F880F3D
S1130B20991F880F991F8B599E4FFC012083318395
S1130B30428353838981282F30E0C901880F991F8C
S1130B40820F931F880F991F880F991F87599E4FF3
S1130B5021E037E0FC013183208389818F5F898321
S1130B608981282F30E0C901880F991F820F931FB4
S1130B70880F991F880F991F815A9E4FFC0111827B
S1130B8010828981282F30E0C901880F991F820FB4
S1130B90931F880F991F880F991F9C012F593E4F4F
S1130BA082E390E0A0E0B0E0F90180839183A28326
S1130BB0B3838981682F70E08981282F30E0C901CF
S1130BC0880F991F820F931F880F991F880F991FF1
S1130BD08F599E4FFC012081318142815381CB0189
S1130BE0880F991F860F971F880F991F880F991FC9
S1130BF08B599E4FFC012083318342835383898127
S1130C00282F30E0C901880F991F820F931F880F86
S1130C10991F880F991F87599E4F28E337E0FC01DD
S1130C203183208389818F5F89838981282F30E0F4
S1130C30C901880F991F820F931F880F991F880F6E
S1130C40991F815A9E4FFC01118210828981282F9D
S1130C5030E0C901880F991F820F931F880F991FD5
S1130C60880F991F9C012F593E4F84E190E0A0E02A
S1130C70B0E0F90180839183A283B3838981682FD3
S1130C8070E08981282F30E0C901880F991F820FF5
S1130C90931F880F991F880F991F8F599E4FFC012E
S1130CA02081318142815381CB01880F991F860FA6
S1130CB0971F880F991F880F991F8B599E4FFC010E
S1130CC020833183428353838981282F30E0C901F3
S1130CD0880F991F820F931F880F991F880F991FE0
S1130CE087599E4F2FE637E0FC01318320838AE049
S1130CF090E0A0E0B0E0BC01CD014CDB79DB83E502
S1130D0090E023E530E0F90120812160FC0120839B
S1130D10889583E590E023E530E0F90120812E7F7A
S1130D20FC012083ECCFCF93DF9300D0CDB7DEB7A7
S1130D309A83898389819A81009719F0019731F008
S1130D400AC081E090E09A83898305C081E090E045
S1130D509A838983000089819A81009799F0019789
S1130D6091F480E290E0FC018081882F90E088700B
S1130D709927892B21F481E080935B0104C01092B0
S1130D805B0101C0000089819A810F900F90DF916F
S1130D90CF910895CF93DF9300D0CDB7DEB79A8378
S1130DA0898389819A81009719F0019731F00AC0EB
S1130DB081E090E09A83898305C081E090E09A8382
S1130DC08983000089819A81009799F0019791F4B1
S1130DD080E290E0FC018081882F90E08170992767
S1130DE0892B21F481E080935C0104C010925C01A2
S1130DF001C0000089819A810F900F90DF91CF91FB
S1130E000895CF93DF9300D0CDB7DEB79A8389835B
S1130E1089819A81009719F0019731F00AC081E025
S1130E2090E09A83898305C081E090E09A83898366
S1130E30000089819A81009799F0019791F480E2EA
S1130E4090E0FC018081882F90E082709927892BA3
S1130E5021F481E080935D0104C010925D0101C022
S1130E60000089819A810F900F90DF91CF910895AE
S1130E70CF93DF9300D0CDB7DEB79A83898389817E
S1130E809A81009719F0019731F00AC081E090E04F
S1130E909A83898305C081E090E09A838983000066
S1130EA089819A81009799F0019791F480E290E00A
S1130EB0FC018081882F90E084709927892B21F48C
S1130EC081E080935E0104C010925E0101C00000C5
S1130ED089819A810F900F90DF91CF910895CF93DC
S1130EE0DF9300D0CDB7DEB79A83898389819A8155
S1130EF08130910551F08230910509F1892B21F55A
S1130F0081E090E09A8389831FC080915B018823EC
S1130F1089F080915C01882369F080915E018823C7
S1130F2049F080915D01882329F082E090E09A8362
S1130F3089830AC081E090E09A83898305C082E0B6
S1130F4090E09A838983000089819A818130910598
S1130F5081F0029781F4B8D845E451E061E070E093
S1130F6082E01AD943E551E062E070E082E014D9EE
S1130F7003C0000001C0000089819A810F900F9086
S10D0F80DF91CF910895F894FFCF9C
S1130F8A1008040202040810010204080402010001
S1130F9A04040404041F0E04040E1F0404040404B9
S1130FAA00001B15110A040004021F001F08040094
S1130FBA010000005072657373202D20746F207332
S1130FCA74617274005A454E205A454E205A454E51
S1090FDA5345004E4F00D8
S9030000FC
