S01B000052687974686D5F47616D655F50726F6A6563742E737265637E
S113000045C0000060C000005EC000005CC000008D
S11300105AC0000058C0000056C0000054C0000080
S113002052C0000050C000004EC000004CC0000090
S11300304AC00000ECC0000046C0000044C00000FC
S113004042C0000040C000003EC000003CC00000B0
S11300503AC0000038C0000036C0000034C00000C0
S113006032C0000030C000002EC000002CC00000D0
S11300702AC0000028C0000026C0000024C00000E0
S113008022C0000020C000001EC0000011241FBEBA
S1130090CFEFD0E4DEBFCDBF11E0A0E0B1E0EEE1F0
S11300A0F3E000E00BBF02C007900D92AE33B1073E
S11300B0D9F721E0AEE3B1E001C01D92A334B20749
S11300C0E1F707D12AC19CCF181619065CF00895F0
S11300D0000021503109E1F74F5F5F4F8417950706
S11300E019F4089540E050E027E033E0F1CF289878
S11300F08BB9299A0000299882E090E0E5CF089511
S1130100813118F48158F3CF08958155F0CF0895C3
S1130110289A8BB9299A0000299881E090E0D4CFDD
S113012008951F93CF93DF936230710509F4805FC4
S1130130FA019081992351F0EA0111E0180FE0DFF0
S11301408991E6DF812F98819111F7CFDF91CF91CB
S11301501F9108950F931F93CF93DF938B018830E2
S113016068F4880F880F880F805CC1DFE801085F9E
S11301701F4F8991CDDFC017D107D9F780E8B7DFCA
S1130180DF91CF911F910F91089584E690E09CDF59
S113019088E3ADDF86E0ABDF8FE0A9DF81E0A7DF96
S11301A08AE090E091DF64E271E080E0D3DF6CE10B
S11301B071E081E0CFDF64E171E082E0CBDF6CE0ED
S11301C071E084E0C7DF64E071E085E0C3CF0895A7
S11301D08CE08DDF81E094DF85E09ADF86E090DFBC
S11301E081E096DF82E094DF84E092DF80E090DFBC
S11301F080E186DF85E08CDF4CE251E062E070E074
S113020081E08FDF87E17CDF84E082CF08951F9255
S11302100F920FB60F9211248F939F93AF93BF93B6
S113022080913E0190913F01A0914001B091410124
S11302300197A109B10980933E0190933F01A093D6
S11302404001B0934101892B8A2B8B2B99F481E0D7
S1130250809342018091000190910101A0910201DB
S1130260B091030180933E0190933F01A09340011C
S1130270B0934101BF91AF919F918F910F900FBEA9
S11302800F901F9018953A9A3B9A3C9A0895429A77
S1130290089542980895439A43980895449A81E0B2
S11302A090E0FC013197F1F744980197F1F7089534
S11302B0CF93DF93D82FC8E0DD2314F4E8DF01C027
S11302C0E8DFE9DFDD0FC150B9F7E8DFDF91CF9157
S11302D008958FEF8AB91BB887B918B811B882B9D5
S11302E084B915B852DF74DFCEDF8FEFE1DF80E031
S11302F0DFDF00E810E0C0E0D0E0C8010C2E02C04F
S1130300959587950A94E2F7D3DF84EF91E0DCDEDC
S11103102196C830D10589F7EECFF894FFCFBF
S113031E0100000000001B15110A0400040E1F0446
S113032E0404040404040404041F0E040102040857
S113033E04020100100804020204081050726573CE
S111034E73202D20746F20737461727400008C
S9030000FC
