S01B0000706E6775793039325F6C6162335F70617274352E737265632F
S113000045C000004BC0000049C0000047C00000CC
S113001045C0000043C0000041C000003FC00000D4
S11300203DC000003BC0000039C0000037C00000E4
S113003035C0000033C0000031C000002FC00000F4
S11300402DC000002BC0000029C0000027C0000004
S113005025C0000023C0000021C000001FC0000014
S11300601DC000001BC0000019C0000017C0000024
S113007015C0000013C0000011C000000FC0000034
S11300800DC000000BC0000009C0000011241FBEF9
S1130090CFEFD0E4DEBFCDBF30D08AC0B1CFCF9395
S11300A0DF9300D01F92CDB7DEB789836A834B8379
S11300B08B81882371F08A81282F30E081E090E0E1
S11300C002C0880F991F2A95E2F7982F8981892BFE
S11300D00EC08A81282F30E081E090E002C0880FB2
S11300E0991F2A95E2F7982F9095898189230F907B
S11300F00F900F90DF91CF910895CF93DF9300D0AD
S113010000D0CDB7DEB78AE290E0FC0110828BE22A
S113011090E02FEFFC01208384E290E02EEFFC01BD
S1130120208385E290E021E0FC0120831B821A8277
S1130130198289E290E0FC018081882F90E0880F89
S1130140991F9B838A8383E290E0FC018081817004
S11301508C838C81882F90E02A813B81822B932B86
S11301609B838A838A819B818634910530F041E0A8
S113017061E0898194DF898313C08A819B8106971A
S113018078F08A819B818634910550F440E061E0E7
S1130190898185DF898341E062E0898180DF898309
S11301A085E290E02981FC0120831B821A82C0CF62
S10701B0F894FFCFED
S9030000FC
