S01C0000706E6775793039325F6C616231305F70617274342E7372656301
S113000045C0000060C000005EC000005CC000008D
S11300105AC0000058C0000056C0000054C0000080
S113002052C0000050C000004EC000004CC0000090
S11300304AC000006DC0000046C0000044C000007B
S113004042C0000040C000003EC000003CC00000B0
S11300503AC0000038C0000036C0000034C00000C0
S113006032C0000030C000002EC000002CC00000D0
S11300702AC0000028C0000026C0000024C00000E0
S113008022C0000020C000001EC0000011241FBEBA
S1130090CFEFD0E4DEBFCDBF11E0A0E0B1E0E6E7F2
S11300A0F3E000E00BBF02C007900D92A630B10749
S11300B0D9F721E0A6E0B1E001C01D92A131B20759
S11300C0E1F72CD156C19CCF8BE0809381008DE762
S11300D090E0909389008093880082E080936F0081
S11300E01092850010928400809101019091020188
S11300F0A0910301B0910401809308019093090138
S1130100A0930A01B0930B018FB780688FBF089545
S11301101F920F920FB60F9211248F939F93AF9358
S1130120BF938091080190910901A0910A01B091B7
S11301300B010197A109B10980930801909309016A
S1130140A0930A01B0930B01892B8A2B8B2B99F472
S113015081E080930C018091010190910201A091B2
S11301600301B09104018093080190930901A093C5
S11301700A01B0930B01BF91AF919F918F910F90A2
S11301800FBE0F901F9018956093010170930201A8
S11301908093030190930401609308017093090113
S11301A080930A0190930B01089580910D01823090
S11301B0D1F028F48823F9F0813009F124C0833088
S11301C019F0843029F01FC084E080930D01089554
S11301D0019903C010920D011FC002992CC081E047
S11301E080930D0121C0019B26C0029B24C084E0A2
S11301F080930D01089582E080930D01089582E0BB
S113020080930D010895813079F030F0833099F4B2
S113021082E080930001089580910001813059F0BB
S1130220815080930001089580910001853019F078
S11302308F5F80930001089580910F01813051F008
S113024028F0823089F08330C9F01EC083E08093A7
S11302500F0124C0009904C082E080930F011CC0E8
S113026083E080930F011AC0009904C081E0809359
S11302700F0110C083E080930F0110C000990EC0DD
S113028081E080930F0106C0823031F0833031F079
S1130290813029F42C9A08952C9808952C98089567
S11302A080911001882319F0813039F004C081E075
S11302B08093100102C0813089F480910701843059
S11302C021F481E0809307010895811104C081E045
S11302D0809307010895880F809307010895809102
S11302E00E01882319F0813039F004C081E0809335
S11302F00E0102C0813051F480910601811104C0C5
S113030088E0809306010895109206010895909163
S1130310060180910701892B85B9089511B88FEFE3
S113032082B984B915B861E070E080E090E02CDF18
S1130330CBDE83E080930D0112E0D4E6CEE1CE3132
S113034010F0AEDFC0E0D43610F0C9DFD0E0809109
S11303500001181710F070DF10E027DFD8DF80915C
S11303600C018823E1F310920C01CF5FDF5F1F5F64
S1090370E6CFF894FFCF74
S10903760201000000007A
S9030000FC
