S0180000706E6775793039325F70726F6A6563742E73726563E8
S113000045C0000060C000005EC000005CC000008D
S11300105AC0000058C0000056C0000054C0000080
S113002052C0000050C000004EC000004CC0000090
S11300304AC00000F2C0000046C0000044C00000F6
S113004042C0000040C000003EC000003CC00000B0
S11300503AC0000038C0000036C0000034C00000C0
S113006032C0000030C000002EC000002CC00000D0
S11300702AC0000028C0000026C0000024C00000E0
S113008022C0000020C000001EC0000011241FBEBA
S1130090CFEFD0E4DEBFCDBF11E0A0E0B1E0EAEFE6
S11300A0F3E000E00BBF02C007900D92A033B1074C
S11300B0D9F721E0A0E3B1E001C01D92A833B20753
S11300C0E1F746D198C19CCF181619065CF0089543
S11300D0000021503109E1F74F5F5F4F8417950706
S11300E019F4089540E050E027E033E0F1CF109890
S11300F08BB9119A0000119882E090E0E5CF089541
S113010081E0F5CF0895813118F48158F0CF089536
S11301108155EDCF0895109A8BB9119A000011986A
S113012081E090E0D1CF08950F931F93CF93DF9395
S1130130883070F48B01880F880F880F805CD7DFBC
S1130140E801085F1F4F8991E6DFC017D107D9F78F
S1130150DF91CF911F910F91089584E690E0B4DF71
S113016088E3C5DF86E0C3DF8FE0C1DF81E0BFDF66
S11301708AE090E0A9DF86E0C6DF68E271E080E013
S1130180D3DF60E171E081E0CFDF68E171E082E01C
S1130190CBDF60E271E084E0C7DF8CE0A8DF80E0C1
S11301A0BADF81E0B8DF82E0B6DF84E0B4CF08953F
S11301B060930C0170930D0180930E0190930F01D5
S11301C06093310170933201809333019093340131
S11301D008958BE0809381008DE790E090938900EF
S11301E08093880082E080936F00109285001092C3
S11301F0840080910C0190910D01A0910E01B091A9
S11302000F018093310190933201A0933301B09395
S113021034018FB780688FBF08951F920F920FB675
S11302200F9211248F939F93AF93BF9380913101C9
S113023090913201A0913301B09134010197A10949
S1130240B1098093310190933201A0933301B093AB
S11302503401892B8A2B8B2B99F481E0809335010F
S113026080910C0190910D01A0910E01B0910F01AC
S11302708093310190933201A0933301B093340100
S1130280BF91AF919F918F910F900FBE0F901F90D0
S11302901895429A089542980895439A4398089568
S11302A0449A81E090E0FC013197F1F7449801977A
S11302B0F1F70895CF93DF93D82FC8E0DD2314F42A
S11302C0E8DF01C0E8DFE9DFDD0FC150B9F7E8DF9F
S11302D0DF91CF9108950F931F93CF93DF93809174
S11302E03601813041F018F0823049F00CC081E0D1
S11302F0809336010DC082E08093360115C081E001
S11303008093360105C0813019F08230E1F40CC0CD
S113031081E1F9DEC0E0D1E00BE011E08991FBDE80
S1130320C017D107D9F70FC0EBDE81E0ECDE809176
S11303303001805DF0DE609130016F5F60933001C9
S113034084E090E046D0DF91CF911F910F91089502
S11303508FEF81B912B88AB91BB887B918B864E6A7
S113036070E080E090E024DF34DFF7DE84E090E0AA
S113037028D08093300180E09DDF8FEF9BDF1EEF5C
S11303806894EE24E7F8F12CA6DF80E893DF812F50
S113039091DFC0E0D0E02196C7010C2E02C09595F4
S11303A087950A94E2F786DF812F84DFC730D10571
S11303B091F7809135018823E1F3109235011150B2
S11303C0E3CFF999FECF92BD81BDF89A992780B504
S11303D00895262FF999FECF92BD81BDF89A019711
S11303E000B4021639F01FBA20BD0FB6F894FA9A79
S10D03F0F99A0FBE0895F894FFCFA8
S11303FA52687974686D2047616D650001000000D8
S113040A040E1F040404040404040404041F0E0454
S113041A010204080402010010080402020408107C
S9030000FC
