:1000000045C0000058C0000056C0000054C00000A9
:1000100052C0000050C000004EC000004CC00000A4
:100020004AC0000048C0000046C0000044C00000B4
:1000300042C0000040C000003EC000003CC00000C4
:100040003AC0000038C0000036C0000034C00000D4
:1000500032C0000030C000002EC000002CC00000E4
:100060002AC0000028C0000026C0000024C00000F4
:1000700022C0000020C000001EC000001CC0000004
:100080001AC0000018C0000016C0000011241FBED6
:10009000CFEFD0E4DEBFCDBF11E0A0E0B1E0E2E8F9
:1000A000F1E000E00BBF02C007900D92A630B1074F
:1000B000D9F75AD064C0A4CF181619065CF0089579
:1000C000000021503109E1F74F5F5F4F841795071A
:1000D00019F4089540E050E027E033E0F1CF5E9856
:1000E00088B95F9A00005F9882E090E0E5CF0895BC
:1000F00081E0F5CF0895813118F48158F0CF08954B
:100100008155EDCF089584E690E0D6DF88E3E7DF00
:1001100086E0E5DF8FE0E3DF81E0E1DF8AE090E089
:10012000CBCF08955E9A88B95F9A00005F9881E00E
:1001300090E0C2CF08950F931F93CF93DF93182FB2
:10014000EB01D6DF8881882351F001E0010F812F78
:10015000D2DF8991E7DF102F88818111F6CFDF91FF
:10016000CF911F910F9108958FEF87B918B88AB971
:100170001BB8C9DF60E071E081E0DDDFFFCFF894FC
:02018000FFCFAF
:0601820048656C6C6F0083
:00000001FF
