:1000000045C0000060C000005EC000005CC0000091
:100010005AC0000058C0000056C0000054C0000084
:1000200052C0000050C000004EC000004CC0000094
:100030004AC000007EC0000046C0000044C000006E
:1000400042C0000040C000003EC000003CC00000B4
:100050003AC0000038C0000036C0000034C00000C4
:1000600032C0000030C000002EC000002CC00000D4
:100070002AC0000028C0000026C0000024C00000E4
:1000800022C0000020C000001EC0000011241FBEBE
:10009000CFEFD0E4DEBFCDBF11E0A0E0B1E0ECE2F5
:1000A000F3E000E00BBF02C007900D92A234B1074D
:1000B000D9F721E0A2E4B1E001C01D92A335B20757
:1000C000E1F7DFD031C19CCF609300017093010153
:1000D000809302019093030160934E0170934F014E
:1000E000809350019093510108958BE0809381009B
:1000F0008DE790E0909389008093880082E0809360
:100100006F00109285001092840080910001909100
:100110000101A0910201B091030180934E019093DF
:100120004F01A0935001B09351018FB780688FBFEA
:1001300008951F920F920FB60F9211248F939F93E1
:10014000AF93BF9380914E0190914F01A0915001C8
:10015000B09151010197A109B10980934E0190938B
:100160004F01A0935001B0935101892B8A2B8B2B07
:1001700099F481E0809352018091000190910101F6
:10018000A0910201B091030180934E0190934F0121
:10019000A0935001B0935101BF91AF919F918F9166
:1001A0000F900FBE0F901F901895181619065CF04F
:1001B0000895000021503109E1F74F5F5F4F841728
:1001C000950719F4089540E050E027E033E0F1CFBF
:1001D00010988BB9119A0000119882E090E0E5CF59
:1001E000089581E0F5CF0895813118F48158F0CF5A
:1001F00008958155EDCF089584E690E0D6DF88E339
:10020000E7DF86E0E5DF8FE0E3DF81E0E1DF8AE042
:1002100090E0CBCF0895109A8BB9119A00001198F5
:1002200081E090E0C2CF08950F931F93CF93DF93A7
:100230008C01892B01F5C1E0D0E08C2FD5DF8091B6
:100240004D01FE01EC5FFE4FE80FF11D8081E3DF01
:1002500080914D019E01280F311D2D33310511F480
:1002600010924D012196C131D10539F780914D0190
:100270008F5F80934D01C801DF91CF911F910F9146
:1002800008958FEF81B912B88AB91BB884B915B82F
:1002900080EF87B98FE088B9E2E4F1E010828AE06C
:1002A00090E0A0E0B0E081839283A383B483858350
:1002B0009683A783B08784E191E0928781876AE083
:1002C00070E080E090E000DF10DF96DF8ADFC2E4BC
:1002D000D1E04D815E816F81788589819A81AB8182
:1002E000BC81481759076A077B0760F08881E98558
:1002F000FA85082E000C990B099588831D821E82B1
:100300001F8218868D819E81AF81B8850196A11DBF
:10031000B11D8D839E83AF83B8878091520188235E
:0C032000E1F310925201D5CFF894FFCF0A
:10032C000100000020202020202020202020202040
:10033C00202020435331323042206973204C4547F2
:10034C00454E442E2E2E207761697420666F7220E4
:10035C006974204441525921202020202020202043
:02036C0020006F
:00000001FF
