S01B0000706E6775793039325F6C6162345F70617274342E737265632F
S113000055C0000063C0000061C000005FC0000074
S11300105DC000005BC0000059C0000057C0000074
S113002055C0000053C0000051C000004FC0000084
S11300304DC000004BC0000049C0000047C0000094
S113004045C0000043C0000041C000003FC00000A4
S11300503DC000003BC0000039C0000037C00000B4
S113006035C0000033C0000031C000002FC00000C4
S11300702DC000002BC0000029C0000027C00000D4
S113008025C0000023C0000021C00000A500AC0072
S1130090D600FF005C018601E701100271027A02BA
S11300A088029602A402AF02B902C30211241FBE41
S11300B0CFEFD0E4DEBFCDBF21E0A0E0B1E001C0CE
S11300C01D92A230B207E1F702D076C299CFCF9346
S11300D0DF93CDB7DEB781E290E0FC01108282E2CB
S11300E090E02FEFFC01208384E290E02FEFFC01ED
S11300F0208385E290E0FC01108287E290E02FEFFC
S1130100FC01208388E290E0FC011082109201013E
S11301101092000101D0FECFCF93DF93CDB7DEB7AD
S11301208091000190910101CC01A0E0B0E040E099
S113013050E027E030E0841B950B2817390708F4BA
S1130140BAC18A5B9F4FFC012EC281E090E090937C
S1130150010180930001B0C180E290E0FC01808144
S1130160882F90E087709927049739F482E090E013
S113017090930101809300019FC180E290E0FC0113
S11301808081882F90E0877899278038910539F409
S113019085E090E090930101809300018DC181E09E
S11301A090E0909301018093000186C180E290E089
S11301B0FC018081882F90E087709927049739F497
S11301C082E090E0909301018093000175C180E288
S11301D090E0FC018081882F90E087709927892B1B
S11301E039F483E090E0909301018093000164C1AD
S11301F081E090E090930101809300015DC180E271
S113020090E0FC018081882F90E087709927029705
S113021039F484E090E090930101809300014CC193
S113022080E290E0FC018081882F90E08778992714
S11302308038910539F485E090E090930101809332
S113024000013AC180E290E0FC018081882F90E0B7
S113025087709927019739F481E090E09093010128
S11302608093000129C180E290E0FC018081882F05
S113027090E087709927039739F481E090E0909398
S113028001018093000118C180E290E0FC018081AB
S1130290882F90E087709927079739F481E090E0E0
S11302A0909301018093000107C183E090E0909353
S11302B001018093000100C180E290E0FC01808193
S11302C0882F90E0877899278038910539F485E064
S11302D090E09093010180930001EEC080E290E0F1
S11302E0FC018081882F90E087789927049739F45E
S11302F086E090E09093010180930001DDC084E0EA
S113030090E09093010180930001D6C080E290E0D8
S1130310FC018081882F90E08778992780389105A7
S113032039F485E090E09093010180930001C4C00A
S113033080E290E0FC018081882F90E0877099270B
S1130340019739F485E090E09093010180930001D6
S1130350B3C080E290E0FC018081882F90E0877038
S11303609927029739F485E090E0909301018093F6
S11303700001A2C080E290E0FC018081882F90E01F
S113038087709927049739F485E090E090930101F0
S11303908093000191C080E290E0FC018081882F6D
S11303A090E087709927079739F485E090E090935F
S11303B001018093000180C080E290E0FC01808113
S11303C081E090E0909301018093000175C080E288
S11303D090E0FC018081882F90E087709927049732
S11303E039F486E090E0909301018093000164C0A9
S11303F080E290E0FC018081882F90E0877099274B
S1130400892B39F487E090E09093010180930001F7
S113041053C084E090E090930101809300014CC0AC
S113042080E290E0FC018081882F90E0877099271A
S1130430029739F485E090E09093010180930001E4
S11304403BC080E290E0FC018081882F90E08770BF
S11304509927039739F484E090E090930101809305
S113046000012AC080E290E0FC018081882F90E0A6
S113047087709927019739F484E090E09093010103
S11304808093000119C080E290E0FC018081882FF4
S113049090E087709927079739F484E090E090936F
S11304A001018093000108C087E090E0909301016E
S11304B08093000101C0000080910001909101012E
S11304C0CC01A0E0B0E040E050E027E030E0841B45
S11304D0950B2817390708F461C0825B9F4FFC0114
S11304E062C088E290E0FC01108285E290E0FC01A9
S11304F0108255C088E290E021E0FC01208385E26F
S113050090E025E230E0F9012081FC01208347C01E
S113051088E290E022E0FC01208385E290E025E27D
S113052030E0F9012081FC01208339C088E290E0A9
S113053023E0FC01208385E290E025E230E0F9012C
S11305402081FC0120832BC085E290E021E0FC01A6
S1130550208388E290E024E0FC01208320C085E22F
S113056090E0FC01108288E290E025E0FC01208309
S113057016C085E290E021E0FC01208388E290E04F
S113058026E0FC01208385E290E021E0FC01208349
S113059088E290E027E0FC01208301C00000000015
S11305A0DF91CF910895EE0FFF1F0024001C0BBEB6
S10F05B00790F691E02D0994F894FFCF19
S9030000FC
